{
  "contractName": "ehr",
  "abi": [
    {
      "constant": true,
      "inputs": [
        {
          "name": "",
          "type": "uint256"
        }
      ],
      "name": "person",
      "outputs": [
        {
          "name": "name",
          "type": "string"
        },
        {
          "name": "DOB",
          "type": "string"
        },
        {
          "name": "addrs",
          "type": "string"
        },
        {
          "name": "email",
          "type": "string"
        },
        {
          "name": "myGender",
          "type": "uint8"
        },
        {
          "name": "emergencycontact",
          "type": "string"
        },
        {
          "name": "emergno",
          "type": "uint256"
        }
      ],
      "payable": false,
      "stateMutability": "view",
      "type": "function"
    },
    {
      "constant": true,
      "inputs": [
        {
          "name": "",
          "type": "uint256"
        }
      ],
      "name": "dctr",
      "outputs": [
        {
          "name": "publickey",
          "type": "address"
        },
        {
          "name": "name",
          "type": "string"
        },
        {
          "name": "DOB",
          "type": "string"
        },
        {
          "name": "addrs",
          "type": "string"
        },
        {
          "name": "email",
          "type": "string"
        },
        {
          "name": "myGender",
          "type": "uint8"
        },
        {
          "name": "hospitalname",
          "type": "string"
        },
        {
          "name": "qualifications",
          "type": "string"
        }
      ],
      "payable": false,
      "stateMutability": "view",
      "type": "function"
    },
    {
      "constant": true,
      "inputs": [
        {
          "name": "",
          "type": "uint256"
        }
      ],
      "name": "certcount",
      "outputs": [
        {
          "name": "",
          "type": "uint256"
        }
      ],
      "payable": false,
      "stateMutability": "view",
      "type": "function"
    },
    {
      "constant": true,
      "inputs": [
        {
          "name": "",
          "type": "uint256"
        }
      ],
      "name": "hospitaldetails",
      "outputs": [
        {
          "name": "publickey",
          "type": "address"
        },
        {
          "name": "name",
          "type": "string"
        },
        {
          "name": "email",
          "type": "string"
        },
        {
          "name": "phone",
          "type": "uint256"
        },
        {
          "name": "ownership",
          "type": "string"
        },
        {
          "name": "state",
          "type": "string"
        },
        {
          "name": "place",
          "type": "string"
        },
        {
          "name": "haddress",
          "type": "string"
        }
      ],
      "payable": false,
      "stateMutability": "view",
      "type": "function"
    },
    {
      "constant": true,
      "inputs": [
        {
          "name": "",
          "type": "uint256"
        },
        {
          "name": "",
          "type": "uint256"
        }
      ],
      "name": "addcerti",
      "outputs": [
        {
          "name": "",
          "type": "string"
        }
      ],
      "payable": false,
      "stateMutability": "view",
      "type": "function"
    },
    {
      "inputs": [],
      "payable": false,
      "stateMutability": "nonpayable",
      "type": "constructor"
    },
    {
      "constant": false,
      "inputs": [
        {
          "name": "_mobileno",
          "type": "uint256"
        },
        {
          "name": "_name",
          "type": "string"
        },
        {
          "name": "_DOB",
          "type": "string"
        },
        {
          "name": "_addrs",
          "type": "string"
        },
        {
          "name": "_email",
          "type": "string"
        },
        {
          "name": "_myGender",
          "type": "uint8"
        },
        {
          "name": "_emergencycontact",
          "type": "string"
        },
        {
          "name": "_emergno",
          "type": "uint256"
        }
      ],
      "name": "setPatient",
      "outputs": [],
      "payable": false,
      "stateMutability": "nonpayable",
      "type": "function"
    },
    {
      "constant": true,
      "inputs": [
        {
          "name": "_mobileno",
          "type": "uint256"
        }
      ],
      "name": "getPatient",
      "outputs": [
        {
          "name": "_name",
          "type": "string"
        },
        {
          "name": "_DOB",
          "type": "string"
        },
        {
          "name": "_addrs",
          "type": "string"
        },
        {
          "name": "_email",
          "type": "string"
        },
        {
          "name": "_myGender",
          "type": "uint8"
        },
        {
          "name": "_emergencycontact",
          "type": "string"
        },
        {
          "name": "_emergno",
          "type": "uint256"
        }
      ],
      "payable": false,
      "stateMutability": "view",
      "type": "function"
    },
    {
      "constant": false,
      "inputs": [
        {
          "name": "_id",
          "type": "uint256"
        },
        {
          "name": "_publickey",
          "type": "address"
        },
        {
          "name": "_name",
          "type": "string"
        },
        {
          "name": "_DOB",
          "type": "string"
        },
        {
          "name": "_addrs",
          "type": "string"
        },
        {
          "name": "_email",
          "type": "string"
        },
        {
          "name": "_myGender",
          "type": "uint8"
        },
        {
          "name": "_hospitalname",
          "type": "string"
        },
        {
          "name": "_qualifications",
          "type": "string"
        }
      ],
      "name": "setDoctor",
      "outputs": [],
      "payable": false,
      "stateMutability": "nonpayable",
      "type": "function"
    },
    {
      "constant": true,
      "inputs": [
        {
          "name": "_id",
          "type": "uint256"
        }
      ],
      "name": "getDoctor",
      "outputs": [
        {
          "name": "_publickey",
          "type": "address"
        },
        {
          "name": "_name",
          "type": "string"
        },
        {
          "name": "_DOB",
          "type": "string"
        },
        {
          "name": "_addrs",
          "type": "string"
        },
        {
          "name": "_email",
          "type": "string"
        },
        {
          "name": "_myGender",
          "type": "uint8"
        },
        {
          "name": "_hospitalname",
          "type": "string"
        },
        {
          "name": "_qualifications",
          "type": "string"
        }
      ],
      "payable": false,
      "stateMutability": "view",
      "type": "function"
    },
    {
      "constant": false,
      "inputs": [
        {
          "name": "_id",
          "type": "uint256"
        },
        {
          "name": "_publickey",
          "type": "address"
        },
        {
          "name": "_name",
          "type": "string"
        },
        {
          "name": "_email",
          "type": "string"
        },
        {
          "name": "_phone",
          "type": "uint256"
        },
        {
          "name": "_ownership",
          "type": "string"
        },
        {
          "name": "_state",
          "type": "string"
        },
        {
          "name": "_place",
          "type": "string"
        },
        {
          "name": "_haddress",
          "type": "string"
        }
      ],
      "name": "setHospital",
      "outputs": [
        {
          "name": "",
          "type": "bool"
        }
      ],
      "payable": false,
      "stateMutability": "nonpayable",
      "type": "function"
    },
    {
      "constant": true,
      "inputs": [
        {
          "name": "_id",
          "type": "uint256"
        }
      ],
      "name": "getHospital",
      "outputs": [
        {
          "name": "_publickey",
          "type": "address"
        },
        {
          "name": "_name",
          "type": "string"
        },
        {
          "name": "_email",
          "type": "string"
        },
        {
          "name": "_phone",
          "type": "uint256"
        },
        {
          "name": "_ownership",
          "type": "string"
        },
        {
          "name": "_state",
          "type": "string"
        },
        {
          "name": "_place",
          "type": "string"
        },
        {
          "name": "_haddress",
          "type": "string"
        }
      ],
      "payable": false,
      "stateMutability": "view",
      "type": "function"
    },
    {
      "constant": false,
      "inputs": [
        {
          "name": "_mobileno",
          "type": "uint256"
        },
        {
          "name": "_certhash",
          "type": "string"
        }
      ],
      "name": "setCertificate",
      "outputs": [],
      "payable": false,
      "stateMutability": "nonpayable",
      "type": "function"
    },
    {
      "constant": false,
      "inputs": [
        {
          "name": "_mobileno",
          "type": "uint256"
        },
        {
          "name": "_count",
          "type": "uint256"
        }
      ],
      "name": "setcount",
      "outputs": [],
      "payable": false,
      "stateMutability": "nonpayable",
      "type": "function"
    }
  ],
  "bytecode": "0x608060405234801561001057600080fd5b50336000806101000a81548173ffffffffffffffffffffffffffffffffffffffff021916908373ffffffffffffffffffffffffffffffffffffffff160217905550612e84806100606000396000f3fe6080604052600436106100c5576000357c0100000000000000000000000000000000000000000000000000000000900463ffffffff168063092a1820146100ca5780633c5e0d201461010d57806354efaea11461013657806369b0a72d1461017a5780637b4e8ce4146101be5780637d3a6796146101fb578063844a4e881461023e578063a7470f9a14610267578063b06efa9e146102ab578063c91da336146102d4578063e319169f14610311578063ec29005d1461033a578063ee7c2f661461037e575b600080fd5b3480156100d657600080fd5b506100f160048036036100ec9190810190612390565b6103bb565b6040516101049796959493929190612c36565b60405180910390f35b34801561011957600080fd5b50610134600480360361012f91908101906126b9565b610702565b005b34801561014257600080fd5b5061015d60048036036101589190810190612390565b610825565b604051610171989796959493929190612a17565b60405180910390f35b34801561018657600080fd5b506101a1600480360361019c9190810190612390565b610c2a565b6040516101b59897969594939291906128c7565b60405180910390f35b3480156101ca57600080fd5b506101e560048036036101e09190810190612390565b6110c7565b6040516101f29190612cc8565b60405180910390f35b34801561020757600080fd5b50610222600480360361021d9190810190612390565b6110df565b6040516102359796959493929190612ba4565b60405180910390f35b34801561024a57600080fd5b50610265600480360361026091908101906127e3565b6114aa565b005b34801561027357600080fd5b5061028e60048036036102899190810190612390565b6114c6565b6040516102a298979695949392919061296f565b60405180910390f35b3480156102b757600080fd5b506102d260048036036102cd9190810190612665565b611956565b005b3480156102e057600080fd5b506102fb60048036036102f6919081019061250f565b6119b9565b6040516103089190612b67565b60405180910390f35b34801561031d57600080fd5b50610338600480360361033391908101906123b9565b611b89565b005b34801561034657600080fd5b50610361600480360361035c9190810190612390565b611d24565b604051610375989796959493929190612abf565b60405180910390f35b34801561038a57600080fd5b506103a560048036036103a091908101906127e3565b61211c565b6040516103b29190612b82565b60405180910390f35b6001602052806000526040600020600091509050806000018054600181600116156101000203166002900480601f0160208091040260200160405190810160405280929190818152602001828054600181600116156101000203166002900480156104675780601f1061043c57610100808354040283529160200191610467565b820191906000526020600020905b81548152906001019060200180831161044a57829003601f168201915b505050505090806001018054600181600116156101000203166002900480601f0160208091040260200160405190810160405280929190818152602001828054600181600116156101000203166002900480156105055780601f106104da57610100808354040283529160200191610505565b820191906000526020600020905b8154815290600101906020018083116104e857829003601f168201915b505050505090806002018054600181600116156101000203166002900480601f0160208091040260200160405190810160405280929190818152602001828054600181600116156101000203166002900480156105a35780601f10610578576101008083540402835291602001916105a3565b820191906000526020600020905b81548152906001019060200180831161058657829003601f168201915b505050505090806003018054600181600116156101000203166002900480601f0160208091040260200160405190810160405280929190818152602001828054600181600116156101000203166002900480156106415780601f1061061657610100808354040283529160200191610641565b820191906000526020600020905b81548152906001019060200180831161062457829003601f168201915b5050505050908060040160009054906101000a900460ff1690806005018054600181600116156101000203166002900480601f0160208091040260200160405190810160405280929190818152602001828054600181600116156101000203166002900480156106f25780601f106106c7576101008083540402835291602001916106f2565b820191906000526020600020905b8154815290600101906020018083116106d557829003601f168201915b5050505050908060060154905087565b60e06040519081016040528088815260200187815260200186815260200185815260200184600281111561073257fe5b815260200183815260200182815250600160008a815260200190815260200160002060008201518160000190805190602001906107709291906121d9565b50602082015181600101908051906020019061078d9291906121d9565b5060408201518160020190805190602001906107aa9291906121d9565b5060608201518160030190805190602001906107c79291906121d9565b5060808201518160040160006101000a81548160ff021916908360028111156107ec57fe5b021790555060a082015181600501908051906020019061080d9291906121d9565b5060c082015181600601559050505050505050505050565b60026020528060005260406000206000915090508060000160009054906101000a900473ffffffffffffffffffffffffffffffffffffffff1690806001018054600181600116156101000203166002900480601f0160208091040260200160405190810160405280929190818152602001828054600181600116156101000203166002900480156108f75780601f106108cc576101008083540402835291602001916108f7565b820191906000526020600020905b8154815290600101906020018083116108da57829003601f168201915b505050505090806002018054600181600116156101000203166002900480601f0160208091040260200160405190810160405280929190818152602001828054600181600116156101000203166002900480156109955780601f1061096a57610100808354040283529160200191610995565b820191906000526020600020905b81548152906001019060200180831161097857829003601f168201915b505050505090806003018054600181600116156101000203166002900480601f016020809104026020016040519081016040528092919081815260200182805460018160011615610100020316600290048015610a335780601f10610a0857610100808354040283529160200191610a33565b820191906000526020600020905b815481529060010190602001808311610a1657829003601f168201915b505050505090806004018054600181600116156101000203166002900480601f016020809104026020016040519081016040528092919081815260200182805460018160011615610100020316600290048015610ad15780601f10610aa657610100808354040283529160200191610ad1565b820191906000526020600020905b815481529060010190602001808311610ab457829003601f168201915b5050505050908060050160009054906101000a900460ff1690806006018054600181600116156101000203166002900480601f016020809104026020016040519081016040528092919081815260200182805460018160011615610100020316600290048015610b825780601f10610b5757610100808354040283529160200191610b82565b820191906000526020600020905b815481529060010190602001808311610b6557829003601f168201915b505050505090806007018054600181600116156101000203166002900480601f016020809104026020016040519081016040528092919081815260200182805460018160011615610100020316600290048015610c205780601f10610bf557610100808354040283529160200191610c20565b820191906000526020600020905b815481529060010190602001808311610c0357829003601f168201915b5050505050905088565b60006060806060806000606080600260008a815260200190815260200160002060000160009054906101000a900473ffffffffffffffffffffffffffffffffffffffff169750600260008a81526020019081526020016000206001018054600181600116156101000203166002900480601f016020809104026020016040519081016040528092919081815260200182805460018160011615610100020316600290048015610d1a5780601f10610cef57610100808354040283529160200191610d1a565b820191906000526020600020905b815481529060010190602001808311610cfd57829003601f168201915b50505050509650600260008a81526020019081526020016000206002018054600181600116156101000203166002900480601f016020809104026020016040519081016040528092919081815260200182805460018160011615610100020316600290048015610dcb5780601f10610da057610100808354040283529160200191610dcb565b820191906000526020600020905b815481529060010190602001808311610dae57829003601f168201915b50505050509550600260008a81526020019081526020016000206003018054600181600116156101000203166002900480601f016020809104026020016040519081016040528092919081815260200182805460018160011615610100020316600290048015610e7c5780601f10610e5157610100808354040283529160200191610e7c565b820191906000526020600020905b815481529060010190602001808311610e5f57829003601f168201915b50505050509450600260008a81526020019081526020016000206004018054600181600116156101000203166002900480601f016020809104026020016040519081016040528092919081815260200182805460018160011615610100020316600290048015610f2d5780601f10610f0257610100808354040283529160200191610f2d565b820191906000526020600020905b815481529060010190602001808311610f1057829003601f168201915b50505050509350600260008a815260200190815260200160002060050160009054906101000a900460ff169250600260008a81526020019081526020016000206006018054600181600116156101000203166002900480601f0160208091040260200160405190810160405280929190818152602001828054600181600116156101000203166002900480156110045780601f10610fd957610100808354040283529160200191611004565b820191906000526020600020905b815481529060010190602001808311610fe757829003601f168201915b50505050509150600260008a81526020019081526020016000206007018054600181600116156101000203166002900480601f0160208091040260200160405190810160405280929190818152602001828054600181600116156101000203166002900480156110b55780601f1061108a576101008083540402835291602001916110b5565b820191906000526020600020905b81548152906001019060200180831161109857829003601f168201915b50505050509050919395975091939597565b60056020528060005260406000206000915090505481565b606080606080600060606000600160008981526020019081526020016000206000018054600181600116156101000203166002900480601f0160208091040260200160405190810160405280929190818152602001828054600181600116156101000203166002900480156111955780601f1061116a57610100808354040283529160200191611195565b820191906000526020600020905b81548152906001019060200180831161117857829003601f168201915b50505050509650600160008981526020019081526020016000206001018054600181600116156101000203166002900480601f0160208091040260200160405190810160405280929190818152602001828054600181600116156101000203166002900480156112465780601f1061121b57610100808354040283529160200191611246565b820191906000526020600020905b81548152906001019060200180831161122957829003601f168201915b50505050509550600160008981526020019081526020016000206002018054600181600116156101000203166002900480601f0160208091040260200160405190810160405280929190818152602001828054600181600116156101000203166002900480156112f75780601f106112cc576101008083540402835291602001916112f7565b820191906000526020600020905b8154815290600101906020018083116112da57829003601f168201915b50505050509450600160008981526020019081526020016000206003018054600181600116156101000203166002900480601f0160208091040260200160405190810160405280929190818152602001828054600181600116156101000203166002900480156113a85780601f1061137d576101008083540402835291602001916113a8565b820191906000526020600020905b81548152906001019060200180831161138b57829003601f168201915b505050505093506001600089815260200190815260200160002060040160009054906101000a900460ff169250600160008981526020019081526020016000206005018054600181600116156101000203166002900480601f01602080910402602001604051908101604052809291908181526020018280546001816001161561010002031660029004801561147f5780601f106114545761010080835404028352916020019161147f565b820191906000526020600020905b81548152906001019060200180831161146257829003601f168201915b5050505050915060016000898152602001908152602001600020600601549050919395979092949650565b8060056000848152602001908152602001600020819055505050565b60006060806000606080606080600360008a815260200190815260200160002060000160009054906101000a900473ffffffffffffffffffffffffffffffffffffffff169750600360008a81526020019081526020016000206001018054600181600116156101000203166002900480601f0160208091040260200160405190810160405280929190818152602001828054600181600116156101000203166002900480156115b65780601f1061158b576101008083540402835291602001916115b6565b820191906000526020600020905b81548152906001019060200180831161159957829003601f168201915b50505050509650600360008a81526020019081526020016000206002018054600181600116156101000203166002900480601f0160208091040260200160405190810160405280929190818152602001828054600181600116156101000203166002900480156116675780601f1061163c57610100808354040283529160200191611667565b820191906000526020600020905b81548152906001019060200180831161164a57829003601f168201915b50505050509550600360008a8152602001908152602001600020600301549450600360008a81526020019081526020016000206004018054600181600116156101000203166002900480601f0160208091040260200160405190810160405280929190818152602001828054600181600116156101000203166002900480156117315780601f1061170657610100808354040283529160200191611731565b820191906000526020600020905b81548152906001019060200180831161171457829003601f168201915b50505050509350600360008a81526020019081526020016000206005018054600181600116156101000203166002900480601f0160208091040260200160405190810160405280929190818152602001828054600181600116156101000203166002900480156117e25780601f106117b7576101008083540402835291602001916117e2565b820191906000526020600020905b8154815290600101906020018083116117c557829003601f168201915b50505050509250600360008a81526020019081526020016000206006018054600181600116156101000203166002900480601f0160208091040260200160405190810160405280929190818152602001828054600181600116156101000203166002900480156118935780601f1061186857610100808354040283529160200191611893565b820191906000526020600020905b81548152906001019060200180831161187657829003601f168201915b50505050509150600360008a81526020019081526020016000206007018054600181600116156101000203166002900480601f0160208091040260200160405190810160405280929190818152602001828054600181600116156101000203166002900480156119445780601f1061191957610100808354040283529160200191611944565b820191906000526020600020905b81548152906001019060200180831161192757829003601f168201915b50505050509050919395975091939597565b6000600160056000858152602001908152602001600020540190508160046000858152602001908152602001600020600083815260200190815260200160002090805190602001906119a9929190612259565b506119b483826114aa565b505050565b60008060009054906101000a900473ffffffffffffffffffffffffffffffffffffffff1673ffffffffffffffffffffffffffffffffffffffff163373ffffffffffffffffffffffffffffffffffffffff16141515611a1657600080fd5b610100604051908101604052808a73ffffffffffffffffffffffffffffffffffffffff16815260200189815260200188815260200187815260200186815260200185815260200184815260200183815250600360008c815260200190815260200160002060008201518160000160006101000a81548173ffffffffffffffffffffffffffffffffffffffff021916908373ffffffffffffffffffffffffffffffffffffffff1602179055506020820151816001019080519060200190611add9291906121d9565b506040820151816002019080519060200190611afa9291906121d9565b50606082015181600301556080820151816004019080519060200190611b219291906121d9565b5060a0820151816005019080519060200190611b3e9291906121d9565b5060c0820151816006019080519060200190611b5b9291906121d9565b5060e0820151816007019080519060200190611b789291906121d9565b509050509998505050505050505050565b610100604051908101604052808973ffffffffffffffffffffffffffffffffffffffff168152602001888152602001878152602001868152602001858152602001846002811115611bd657fe5b815260200183815260200182815250600260008b815260200190815260200160002060008201518160000160006101000a81548173ffffffffffffffffffffffffffffffffffffffff021916908373ffffffffffffffffffffffffffffffffffffffff1602179055506020820151816001019080519060200190611c5b9291906121d9565b506040820151816002019080519060200190611c789291906121d9565b506060820151816003019080519060200190611c959291906121d9565b506080820151816004019080519060200190611cb29291906121d9565b5060a08201518160050160006101000a81548160ff02191690836002811115611cd757fe5b021790555060c0820151816006019080519060200190611cf89291906121d9565b5060e0820151816007019080519060200190611d159291906121d9565b50905050505050505050505050565b60036020528060005260406000206000915090508060000160009054906101000a900473ffffffffffffffffffffffffffffffffffffffff1690806001018054600181600116156101000203166002900480601f016020809104026020016040519081016040528092919081815260200182805460018160011615610100020316600290048015611df65780601f10611dcb57610100808354040283529160200191611df6565b820191906000526020600020905b815481529060010190602001808311611dd957829003601f168201915b505050505090806002018054600181600116156101000203166002900480601f016020809104026020016040519081016040528092919081815260200182805460018160011615610100020316600290048015611e945780601f10611e6957610100808354040283529160200191611e94565b820191906000526020600020905b815481529060010190602001808311611e7757829003601f168201915b505050505090806003015490806004018054600181600116156101000203166002900480601f016020809104026020016040519081016040528092919081815260200182805460018160011615610100020316600290048015611f385780601f10611f0d57610100808354040283529160200191611f38565b820191906000526020600020905b815481529060010190602001808311611f1b57829003601f168201915b505050505090806005018054600181600116156101000203166002900480601f016020809104026020016040519081016040528092919081815260200182805460018160011615610100020316600290048015611fd65780601f10611fab57610100808354040283529160200191611fd6565b820191906000526020600020905b815481529060010190602001808311611fb957829003601f168201915b505050505090806006018054600181600116156101000203166002900480601f0160208091040260200160405190810160405280929190818152602001828054600181600116156101000203166002900480156120745780601f1061204957610100808354040283529160200191612074565b820191906000526020600020905b81548152906001019060200180831161205757829003601f168201915b505050505090806007018054600181600116156101000203166002900480601f0160208091040260200160405190810160405280929190818152602001828054600181600116156101000203166002900480156121125780601f106120e757610100808354040283529160200191612112565b820191906000526020600020905b8154815290600101906020018083116120f557829003601f168201915b5050505050905088565b6004602052816000526040600020602052806000526040600020600091509150508054600181600116156101000203166002900480601f0160208091040260200160405190810160405280929190818152602001828054600181600116156101000203166002900480156121d15780601f106121a6576101008083540402835291602001916121d1565b820191906000526020600020905b8154815290600101906020018083116121b457829003601f168201915b505050505081565b828054600181600116156101000203166002900490600052602060002090601f016020900481019282601f1061221a57805160ff1916838001178555612248565b82800160010185558215612248579182015b8281111561224757825182559160200191906001019061222c565b5b50905061225591906122d9565b5090565b828054600181600116156101000203166002900490600052602060002090601f016020900481019282601f1061229a57805160ff19168380011785556122c8565b828001600101855582156122c8579182015b828111156122c75782518255916020019190600101906122ac565b5b5090506122d591906122d9565b5090565b6122fb91905b808211156122f75760008160009055506001016122df565b5090565b90565b600061230a8235612db0565b905092915050565b600061231e8235612dc2565b905092915050565b600082601f830112151561233957600080fd5b813561234c61234782612d10565b612ce3565b9150808252602083016020830185838301111561236857600080fd5b612373838284612df7565b50505092915050565b60006123888235612ddb565b905092915050565b6000602082840312156123a257600080fd5b60006123b08482850161237c565b91505092915050565b60008060008060008060008060006101208a8c0312156123d857600080fd5b60006123e68c828d0161237c565b99505060206123f78c828d016122fe565b98505060408a013567ffffffffffffffff81111561241457600080fd5b6124208c828d01612326565b97505060608a013567ffffffffffffffff81111561243d57600080fd5b6124498c828d01612326565b96505060808a013567ffffffffffffffff81111561246657600080fd5b6124728c828d01612326565b95505060a08a013567ffffffffffffffff81111561248f57600080fd5b61249b8c828d01612326565b94505060c06124ac8c828d01612312565b93505060e08a013567ffffffffffffffff8111156124c957600080fd5b6124d58c828d01612326565b9250506101008a013567ffffffffffffffff8111156124f357600080fd5b6124ff8c828d01612326565b9150509295985092959850929598565b60008060008060008060008060006101208a8c03121561252e57600080fd5b600061253c8c828d0161237c565b995050602061254d8c828d016122fe565b98505060408a013567ffffffffffffffff81111561256a57600080fd5b6125768c828d01612326565b97505060608a013567ffffffffffffffff81111561259357600080fd5b61259f8c828d01612326565b96505060806125b08c828d0161237c565b95505060a08a013567ffffffffffffffff8111156125cd57600080fd5b6125d98c828d01612326565b94505060c08a013567ffffffffffffffff8111156125f657600080fd5b6126028c828d01612326565b93505060e08a013567ffffffffffffffff81111561261f57600080fd5b61262b8c828d01612326565b9250506101008a013567ffffffffffffffff81111561264957600080fd5b6126558c828d01612326565b9150509295985092959850929598565b6000806040838503121561267857600080fd5b60006126868582860161237c565b925050602083013567ffffffffffffffff8111156126a357600080fd5b6126af85828601612326565b9150509250929050565b600080600080600080600080610100898b0312156126d657600080fd5b60006126e48b828c0161237c565b985050602089013567ffffffffffffffff81111561270157600080fd5b61270d8b828c01612326565b975050604089013567ffffffffffffffff81111561272a57600080fd5b6127368b828c01612326565b965050606089013567ffffffffffffffff81111561275357600080fd5b61275f8b828c01612326565b955050608089013567ffffffffffffffff81111561277c57600080fd5b6127888b828c01612326565b94505060a06127998b828c01612312565b93505060c089013567ffffffffffffffff8111156127b657600080fd5b6127c28b828c01612326565b92505060e06127d38b828c0161237c565b9150509295985092959890939650565b600080604083850312156127f657600080fd5b60006128048582860161237c565b92505060206128158582860161237c565b9150509250929050565b61282881612d52565b82525050565b61283781612d64565b82525050565b61284681612de5565b82525050565b600061285782612d47565b80845261286b816020860160208601612e06565b61287481612e39565b602085010191505092915050565b600061288d82612d3c565b8084526128a1816020860160208601612e06565b6128aa81612e39565b602085010191505092915050565b6128c181612da6565b82525050565b6000610100820190506128dd600083018b61281f565b81810360208301526128ef818a61284c565b90508181036040830152612903818961284c565b90508181036060830152612917818861284c565b9050818103608083015261292b818761284c565b905061293a60a083018661283d565b81810360c083015261294c818561284c565b905081810360e0830152612960818461284c565b90509998505050505050505050565b600061010082019050612985600083018b61281f565b8181036020830152612997818a61284c565b905081810360408301526129ab818961284c565b90506129ba60608301886128b8565b81810360808301526129cc818761284c565b905081810360a08301526129e0818661284c565b905081810360c08301526129f4818561284c565b905081810360e0830152612a08818461284c565b90509998505050505050505050565b600061010082019050612a2d600083018b61281f565b8181036020830152612a3f818a612882565b90508181036040830152612a538189612882565b90508181036060830152612a678188612882565b90508181036080830152612a7b8187612882565b9050612a8a60a083018661283d565b81810360c0830152612a9c8185612882565b905081810360e0830152612ab08184612882565b90509998505050505050505050565b600061010082019050612ad5600083018b61281f565b8181036020830152612ae7818a612882565b90508181036040830152612afb8189612882565b9050612b0a60608301886128b8565b8181036080830152612b1c8187612882565b905081810360a0830152612b308186612882565b905081810360c0830152612b448185612882565b905081810360e0830152612b588184612882565b90509998505050505050505050565b6000602082019050612b7c600083018461282e565b92915050565b60006020820190508181036000830152612b9c8184612882565b905092915050565b600060e0820190508181036000830152612bbe818a61284c565b90508181036020830152612bd2818961284c565b90508181036040830152612be6818861284c565b90508181036060830152612bfa818761284c565b9050612c09608083018661283d565b81810360a0830152612c1b818561284c565b9050612c2a60c08301846128b8565b98975050505050505050565b600060e0820190508181036000830152612c50818a612882565b90508181036020830152612c648189612882565b90508181036040830152612c788188612882565b90508181036060830152612c8c8187612882565b9050612c9b608083018661283d565b81810360a0830152612cad8185612882565b9050612cbc60c08301846128b8565b98975050505050505050565b6000602082019050612cdd60008301846128b8565b92915050565b6000604051905081810181811067ffffffffffffffff82111715612d0657600080fd5b8060405250919050565b600067ffffffffffffffff821115612d2757600080fd5b601f19601f8301169050602081019050919050565b600081519050919050565b600081519050919050565b6000612d5d82612d86565b9050919050565b60008115159050919050565b6000600382101515612d7e57fe5b819050919050565b600073ffffffffffffffffffffffffffffffffffffffff82169050919050565b6000819050919050565b6000612dbb82612d86565b9050919050565b6000600382101515612dd357600080fd5b819050919050565b6000819050919050565b6000612df082612d70565b9050919050565b82818337600083830152505050565b60005b83811015612e24578082015181840152602081019050612e09565b83811115612e33576000848401525b50505050565b6000601f19601f830116905091905056fea265627a7a72305820323fb9da464ada3ec7581848fad0c61a7c84e7dfff90a0bf7b824bf6e6fe58fc6c6578706572696d656e74616cf50037",
  "source": "pragma solidity ^0.5.0;\npragma experimental ABIEncoderV2;\n\n\ncontract ehr{\n\n    //declaring state variables\n    address admin;\n    enum gender {male, female, other}\n\n    // crearting constructor\n    constructor() public{\n        admin = msg.sender;\n    }\n    \n    // creating the structure patient\n    struct patient{\n        string name;\n        string DOB;\n        string addrs;\n        string email;\n        gender myGender;\n        string emergencycontact;\n        uint emergno;\n    }\n    \n    //creating a mapping named person\n    mapping(uint => patient) public person;\n    \n    \n    \n    //function for entering the mobileno of the person and the structure details of that person\n    function setPatient(uint _mobileno, string memory _name, string memory _DOB, string memory _addrs, string memory _email, gender _myGender, string memory _emergencycontact, uint _emergno) public {\n        person[_mobileno] = patient(_name, _DOB, _addrs, _email, _myGender, _emergencycontact, _emergno);\n    }\n    \n    // function for viewing the patient using the mobile number\n    function getPatient(uint _mobileno) public view returns (string memory _name, string memory _DOB, string memory _addrs, string memory _email, gender _myGender, string memory _emergencycontact, uint _emergno){\n\n        _name = person[_mobileno].name;\n        _DOB = person[_mobileno].DOB;\n        _addrs = person[_mobileno].addrs;\n        _email = person[_mobileno].email;\n        _myGender = person[_mobileno].myGender;\n        _emergencycontact = person[_mobileno].emergencycontact;\n        _emergno = person[_mobileno].emergno;\n    }\n\n    // creating the structure doctor\n    struct doctor{\n        address publickey;\n        string name;\n        string DOB;\n        string addrs;\n        string email;\n        gender myGender;\n        string hospitalname;\n        string qualifications;\n    }\n    \n    //creating a mapping named dctr for the doctor\n    mapping(uint => doctor) public dctr;\n\n//function for entering the id of the dctr and the structure details of that doctor\n    function setDoctor(uint _id,address _publickey, string memory _name, string memory _DOB, string memory _addrs, string memory _email, gender _myGender, string memory _hospitalname, string memory _qualifications) public {\n        dctr[_id] = doctor(_publickey, _name, _DOB, _addrs, _email, _myGender, _hospitalname, _qualifications);\n    }    \n\n// function for viewing the doctor using the id\n    function getDoctor(uint _id) public view returns (address _publickey, string memory _name, string memory _DOB, string memory _addrs, string memory _email, gender _myGender, string memory _hospitalname, string memory _qualifications){\n\n        _publickey = dctr[_id].publickey;\n        _name = dctr[_id].name;\n        _DOB = dctr[_id].DOB;\n        _addrs = dctr[_id].addrs;\n        _email = dctr[_id].email;\n        _myGender = dctr[_id].myGender;\n        _hospitalname = dctr[_id].hospitalname;\n        _qualifications = dctr[_id].qualifications;\n    }\n\n    //cerating structure for hospital\n    struct hospital{\n        address publickey;\n        string name;\n        string email;\n        uint phone;\n        string ownership;\n        string state;\n        string place;\n        string haddress;\n    }\n\n    //creating mapping for hospital\n    mapping(uint => hospital) public hospitaldetails;\n\n    //creating modifier for owner only condition\n    modifier only_owner(){\n        require(msg.sender == admin);\n        _;\n    }\n\n    //function to set the hospital with the with the mapping hospital id\n    function setHospital(uint _id, address _publickey, string memory _name, string memory _email, uint  _phone, string memory _ownership, string memory _state, string memory _place, string memory _haddress) public only_owner returns (bool){\n        hospitaldetails[_id] = hospital(_publickey, _name, _email, _phone, _ownership, _state, _place, _haddress);\n    } \n\n    //function to get the hospital details with the hospital id\n    function getHospital(uint _id) public view returns (address _publickey, string memory _name, string memory _email, uint  _phone, string memory _ownership, string memory _state, string memory _place, string memory _haddress){\n\n        _publickey= hospitaldetails[_id].publickey;\n        _name = hospitaldetails[_id].name;\n        _email = hospitaldetails[_id].email;\n        _phone = hospitaldetails[_id].phone;\n        _ownership = hospitaldetails[_id].ownership;\n        _state = hospitaldetails[_id].state;\n        _place = hospitaldetails[_id].place;\n        _haddress = hospitaldetails[_id].haddress;\n    }\n\n    //creating structure to insert the medical certificates\n    struct medicalcertificates{\n        string record;\n    }\n\n    //uploading medical certificates and viewing the certificates\n\n    mapping(uint => mapping(uint => string)) public addcerti;\n    mapping(uint => uint) public certcount;\n \n\n function setCertificate (uint _mobileno, string memory _certhash) public {\n     uint ccount = certcount[_mobileno] + 1;\n     addcerti[_mobileno][ccount] = _certhash;\n     setcount(_mobileno, ccount);\n     \n }\n function setcount(uint _mobileno, uint _count) public{\n     certcount[_mobileno] = _count;\n }\n\n}",
  "sourcePath": "/home/akshaymuralidharan/Documents/Desktop/CED/Truffle/EHR/contracts/EHR.sol",
  "compiler": {
    "name": "solc",
    "version": "0.5.0+commit.1d4f565a.Emscripten.clang"
  },
  "schemaVersion": "3.0.9",
  "updatedAt": "2019-05-14T08:53:58.212Z",
  "devdoc": {
    "methods": {}
  },
  "userdoc": {
    "methods": {}
  }
}