{
  "contractName": "ehr",
  "abi": [
    {
      "constant": true,
      "inputs": [
        {
          "name": "",
          "type": "uint256"
        }
      ],
      "name": "person",
      "outputs": [
        {
          "name": "name",
          "type": "string"
        },
        {
          "name": "DOB",
          "type": "string"
        },
        {
          "name": "addrs",
          "type": "string"
        },
        {
          "name": "email",
          "type": "string"
        },
        {
          "name": "myGender",
          "type": "uint8"
        },
        {
          "name": "emergencycontact",
          "type": "string"
        },
        {
          "name": "emergno",
          "type": "uint256"
        }
      ],
      "payable": false,
      "stateMutability": "view",
      "type": "function"
    },
    {
      "constant": true,
      "inputs": [
        {
          "name": "",
          "type": "uint256"
        }
      ],
      "name": "dctr",
      "outputs": [
        {
          "name": "publickey",
          "type": "address"
        },
        {
          "name": "name",
          "type": "string"
        },
        {
          "name": "DOB",
          "type": "string"
        },
        {
          "name": "addrs",
          "type": "string"
        },
        {
          "name": "email",
          "type": "string"
        },
        {
          "name": "myGender",
          "type": "uint8"
        },
        {
          "name": "hospitalname",
          "type": "string"
        },
        {
          "name": "qualifications",
          "type": "string"
        }
      ],
      "payable": false,
      "stateMutability": "view",
      "type": "function"
    },
    {
      "constant": true,
      "inputs": [
        {
          "name": "",
          "type": "uint256"
        }
      ],
      "name": "hospitaldetails",
      "outputs": [
        {
          "name": "publickey",
          "type": "address"
        },
        {
          "name": "name",
          "type": "string"
        },
        {
          "name": "email",
          "type": "string"
        },
        {
          "name": "phone",
          "type": "uint256"
        },
        {
          "name": "ownership",
          "type": "string"
        },
        {
          "name": "state",
          "type": "string"
        },
        {
          "name": "place",
          "type": "string"
        },
        {
          "name": "haddress",
          "type": "string"
        }
      ],
      "payable": false,
      "stateMutability": "view",
      "type": "function"
    },
    {
      "inputs": [],
      "payable": false,
      "stateMutability": "nonpayable",
      "type": "constructor"
    },
    {
      "constant": false,
      "inputs": [
        {
          "name": "_mobileno",
          "type": "uint256"
        },
        {
          "name": "_name",
          "type": "string"
        },
        {
          "name": "_DOB",
          "type": "string"
        },
        {
          "name": "_addrs",
          "type": "string"
        },
        {
          "name": "_email",
          "type": "string"
        },
        {
          "name": "_myGender",
          "type": "uint8"
        },
        {
          "name": "_emergencycontact",
          "type": "string"
        },
        {
          "name": "_emergno",
          "type": "uint256"
        }
      ],
      "name": "setPatient",
      "outputs": [],
      "payable": false,
      "stateMutability": "nonpayable",
      "type": "function"
    },
    {
      "constant": true,
      "inputs": [
        {
          "name": "_mobileno",
          "type": "uint256"
        }
      ],
      "name": "getPatient",
      "outputs": [
        {
          "name": "_name",
          "type": "string"
        },
        {
          "name": "_DOB",
          "type": "string"
        },
        {
          "name": "_addrs",
          "type": "string"
        },
        {
          "name": "_email",
          "type": "string"
        },
        {
          "name": "_myGender",
          "type": "uint8"
        },
        {
          "name": "_emergencycontact",
          "type": "string"
        },
        {
          "name": "_emergno",
          "type": "uint256"
        }
      ],
      "payable": false,
      "stateMutability": "view",
      "type": "function"
    },
    {
      "constant": false,
      "inputs": [
        {
          "name": "_id",
          "type": "uint256"
        },
        {
          "name": "_publickey",
          "type": "address"
        },
        {
          "name": "_name",
          "type": "string"
        },
        {
          "name": "_DOB",
          "type": "string"
        },
        {
          "name": "_addrs",
          "type": "string"
        },
        {
          "name": "_email",
          "type": "string"
        },
        {
          "name": "_myGender",
          "type": "uint8"
        },
        {
          "name": "_hospitalname",
          "type": "string"
        },
        {
          "name": "_qualifications",
          "type": "string"
        }
      ],
      "name": "setDoctor",
      "outputs": [],
      "payable": false,
      "stateMutability": "nonpayable",
      "type": "function"
    },
    {
      "constant": true,
      "inputs": [
        {
          "name": "_id",
          "type": "uint256"
        }
      ],
      "name": "getDoctor",
      "outputs": [
        {
          "name": "_publickey",
          "type": "address"
        },
        {
          "name": "_name",
          "type": "string"
        },
        {
          "name": "_DOB",
          "type": "string"
        },
        {
          "name": "_addrs",
          "type": "string"
        },
        {
          "name": "_email",
          "type": "string"
        },
        {
          "name": "_myGender",
          "type": "uint8"
        },
        {
          "name": "_hospitalname",
          "type": "string"
        },
        {
          "name": "_qualifications",
          "type": "string"
        }
      ],
      "payable": false,
      "stateMutability": "view",
      "type": "function"
    },
    {
      "constant": false,
      "inputs": [
        {
          "name": "_id",
          "type": "uint256"
        },
        {
          "name": "_publickey",
          "type": "address"
        },
        {
          "name": "_name",
          "type": "string"
        },
        {
          "name": "_email",
          "type": "string"
        },
        {
          "name": "_phone",
          "type": "uint256"
        },
        {
          "name": "_ownership",
          "type": "string"
        },
        {
          "name": "_state",
          "type": "string"
        },
        {
          "name": "_place",
          "type": "string"
        },
        {
          "name": "_haddress",
          "type": "string"
        }
      ],
      "name": "setHospital",
      "outputs": [
        {
          "name": "",
          "type": "bool"
        }
      ],
      "payable": false,
      "stateMutability": "nonpayable",
      "type": "function"
    },
    {
      "constant": true,
      "inputs": [
        {
          "name": "_id",
          "type": "uint256"
        }
      ],
      "name": "getHospital",
      "outputs": [
        {
          "name": "_publickey",
          "type": "address"
        },
        {
          "name": "_name",
          "type": "string"
        },
        {
          "name": "_email",
          "type": "string"
        },
        {
          "name": "_phone",
          "type": "uint256"
        },
        {
          "name": "_ownership",
          "type": "string"
        },
        {
          "name": "_state",
          "type": "string"
        },
        {
          "name": "_place",
          "type": "string"
        },
        {
          "name": "_haddress",
          "type": "string"
        }
      ],
      "payable": false,
      "stateMutability": "view",
      "type": "function"
    }
  ],
  "bytecode": "0x608060405234801561001057600080fd5b50336000806101000a81548173ffffffffffffffffffffffffffffffffffffffff021916908373ffffffffffffffffffffffffffffffffffffffff160217905550613abe806100606000396000f3fe608060405260043610610099576000357c0100000000000000000000000000000000000000000000000000000000900463ffffffff168063092a18201461009e5780633c5e0d201461031e57806354efaea11461066457806369b0a72d1461097c5780637d3a679614610c94578063a7470f9a14610f14578063c91da3361461121e578063e319169f14611626578063ec29005d14611a19575b600080fd5b3480156100aa57600080fd5b506100d7600480360360208110156100c157600080fd5b8101908080359060200190929190505050611d23565b60405180806020018060200180602001806020018860028111156100f757fe5b60ff1681526020018060200187815260200186810386528d818151815260200191508051906020019080838360005b83811015610141578082015181840152602081019050610126565b50505050905090810190601f16801561016e5780820380516001836020036101000a031916815260200191505b5086810385528c818151815260200191508051906020019080838360005b838110156101a757808201518184015260208101905061018c565b50505050905090810190601f1680156101d45780820380516001836020036101000a031916815260200191505b5086810384528b818151815260200191508051906020019080838360005b8381101561020d5780820151818401526020810190506101f2565b50505050905090810190601f16801561023a5780820380516001836020036101000a031916815260200191505b5086810383528a818151815260200191508051906020019080838360005b83811015610273578082015181840152602081019050610258565b50505050905090810190601f1680156102a05780820380516001836020036101000a031916815260200191505b50868103825288818151815260200191508051906020019080838360005b838110156102d95780820151818401526020810190506102be565b50505050905090810190601f1680156103065780820380516001836020036101000a031916815260200191505b509c5050505050505050505050505060405180910390f35b34801561032a57600080fd5b50610662600480360361010081101561034257600080fd5b81019080803590602001909291908035906020019064010000000081111561036957600080fd5b82018360208201111561037b57600080fd5b8035906020019184600183028401116401000000008311171561039d57600080fd5b91908080601f016020809104026020016040519081016040528093929190818152602001838380828437600081840152601f19601f8201169050808301925050505050505091929192908035906020019064010000000081111561040057600080fd5b82018360208201111561041257600080fd5b8035906020019184600183028401116401000000008311171561043457600080fd5b91908080601f016020809104026020016040519081016040528093929190818152602001838380828437600081840152601f19601f8201169050808301925050505050505091929192908035906020019064010000000081111561049757600080fd5b8201836020820111156104a957600080fd5b803590602001918460018302840111640100000000831117156104cb57600080fd5b91908080601f016020809104026020016040519081016040528093929190818152602001838380828437600081840152601f19601f8201169050808301925050505050505091929192908035906020019064010000000081111561052e57600080fd5b82018360208201111561054057600080fd5b8035906020019184600183028401116401000000008311171561056257600080fd5b91908080601f016020809104026020016040519081016040528093929190818152602001838380828437600081840152601f19601f820116905080830192505050505050509192919290803560ff169060200190929190803590602001906401000000008111156105d257600080fd5b8201836020820111156105e457600080fd5b8035906020019184600183028401116401000000008311171561060657600080fd5b91908080601f016020809104026020016040519081016040528093929190818152602001838380828437600081840152601f19601f8201169050808301925050505050505091929192908035906020019092919050505061206a565b005b34801561067057600080fd5b5061069d6004803603602081101561068757600080fd5b810190808035906020019092919050505061218d565b604051808973ffffffffffffffffffffffffffffffffffffffff1673ffffffffffffffffffffffffffffffffffffffff168152602001806020018060200180602001806020018860028111156106ef57fe5b60ff168152602001806020018060200187810387528e818151815260200191508051906020019080838360005b8381101561073757808201518184015260208101905061071c565b50505050905090810190601f1680156107645780820380516001836020036101000a031916815260200191505b5087810386528d818151815260200191508051906020019080838360005b8381101561079d578082015181840152602081019050610782565b50505050905090810190601f1680156107ca5780820380516001836020036101000a031916815260200191505b5087810385528c818151815260200191508051906020019080838360005b838110156108035780820151818401526020810190506107e8565b50505050905090810190601f1680156108305780820380516001836020036101000a031916815260200191505b5087810384528b818151815260200191508051906020019080838360005b8381101561086957808201518184015260208101905061084e565b50505050905090810190601f1680156108965780820380516001836020036101000a031916815260200191505b50878103835289818151815260200191508051906020019080838360005b838110156108cf5780820151818401526020810190506108b4565b50505050905090810190601f1680156108fc5780820380516001836020036101000a031916815260200191505b50878103825288818151815260200191508051906020019080838360005b8381101561093557808201518184015260208101905061091a565b50505050905090810190601f1680156109625780820380516001836020036101000a031916815260200191505b509e50505050505050505050505050505060405180910390f35b34801561098857600080fd5b506109b56004803603602081101561099f57600080fd5b8101908080359060200190929190505050612592565b604051808973ffffffffffffffffffffffffffffffffffffffff1673ffffffffffffffffffffffffffffffffffffffff16815260200180602001806020018060200180602001886002811115610a0757fe5b60ff168152602001806020018060200187810387528e818151815260200191508051906020019080838360005b83811015610a4f578082015181840152602081019050610a34565b50505050905090810190601f168015610a7c5780820380516001836020036101000a031916815260200191505b5087810386528d818151815260200191508051906020019080838360005b83811015610ab5578082015181840152602081019050610a9a565b50505050905090810190601f168015610ae25780820380516001836020036101000a031916815260200191505b5087810385528c818151815260200191508051906020019080838360005b83811015610b1b578082015181840152602081019050610b00565b50505050905090810190601f168015610b485780820380516001836020036101000a031916815260200191505b5087810384528b818151815260200191508051906020019080838360005b83811015610b81578082015181840152602081019050610b66565b50505050905090810190601f168015610bae5780820380516001836020036101000a031916815260200191505b50878103835289818151815260200191508051906020019080838360005b83811015610be7578082015181840152602081019050610bcc565b50505050905090810190601f168015610c145780820380516001836020036101000a031916815260200191505b50878103825288818151815260200191508051906020019080838360005b83811015610c4d578082015181840152602081019050610c32565b50505050905090810190601f168015610c7a5780820380516001836020036101000a031916815260200191505b509e50505050505050505050505050505060405180910390f35b348015610ca057600080fd5b50610ccd60048036036020811015610cb757600080fd5b8101908080359060200190929190505050612a2f565b6040518080602001806020018060200180602001886002811115610ced57fe5b60ff1681526020018060200187815260200186810386528d818151815260200191508051906020019080838360005b83811015610d37578082015181840152602081019050610d1c565b50505050905090810190601f168015610d645780820380516001836020036101000a031916815260200191505b5086810385528c818151815260200191508051906020019080838360005b83811015610d9d578082015181840152602081019050610d82565b50505050905090810190601f168015610dca5780820380516001836020036101000a031916815260200191505b5086810384528b818151815260200191508051906020019080838360005b83811015610e03578082015181840152602081019050610de8565b50505050905090810190601f168015610e305780820380516001836020036101000a031916815260200191505b5086810383528a818151815260200191508051906020019080838360005b83811015610e69578082015181840152602081019050610e4e565b50505050905090810190601f168015610e965780820380516001836020036101000a031916815260200191505b50868103825288818151815260200191508051906020019080838360005b83811015610ecf578082015181840152602081019050610eb4565b50505050905090810190601f168015610efc5780820380516001836020036101000a031916815260200191505b509c5050505050505050505050505060405180910390f35b348015610f2057600080fd5b50610f4d60048036036020811015610f3757600080fd5b8101908080359060200190929190505050612dfa565b604051808973ffffffffffffffffffffffffffffffffffffffff1673ffffffffffffffffffffffffffffffffffffffff16815260200180602001806020018881526020018060200180602001806020018060200187810387528e818151815260200191508051906020019080838360005b83811015610fd9578082015181840152602081019050610fbe565b50505050905090810190601f1680156110065780820380516001836020036101000a031916815260200191505b5087810386528d818151815260200191508051906020019080838360005b8381101561103f578082015181840152602081019050611024565b50505050905090810190601f16801561106c5780820380516001836020036101000a031916815260200191505b5087810385528b818151815260200191508051906020019080838360005b838110156110a557808201518184015260208101905061108a565b50505050905090810190601f1680156110d25780820380516001836020036101000a031916815260200191505b5087810384528a818151815260200191508051906020019080838360005b8381101561110b5780820151818401526020810190506110f0565b50505050905090810190601f1680156111385780820380516001836020036101000a031916815260200191505b50878103835289818151815260200191508051906020019080838360005b83811015611171578082015181840152602081019050611156565b50505050905090810190601f16801561119e5780820380516001836020036101000a031916815260200191505b50878103825288818151815260200191508051906020019080838360005b838110156111d75780820151818401526020810190506111bc565b50505050905090810190601f1680156112045780820380516001836020036101000a031916815260200191505b509e50505050505050505050505050505060405180910390f35b34801561122a57600080fd5b5061160c600480360361012081101561124257600080fd5b8101908080359060200190929190803573ffffffffffffffffffffffffffffffffffffffff1690602001909291908035906020019064010000000081111561128957600080fd5b82018360208201111561129b57600080fd5b803590602001918460018302840111640100000000831117156112bd57600080fd5b91908080601f016020809104026020016040519081016040528093929190818152602001838380828437600081840152601f19601f8201169050808301925050505050505091929192908035906020019064010000000081111561132057600080fd5b82018360208201111561133257600080fd5b8035906020019184600183028401116401000000008311171561135457600080fd5b91908080601f016020809104026020016040519081016040528093929190818152602001838380828437600081840152601f19601f82011690508083019250505050505050919291929080359060200190929190803590602001906401000000008111156113c157600080fd5b8201836020820111156113d357600080fd5b803590602001918460018302840111640100000000831117156113f557600080fd5b91908080601f016020809104026020016040519081016040528093929190818152602001838380828437600081840152601f19601f8201169050808301925050505050505091929192908035906020019064010000000081111561145857600080fd5b82018360208201111561146a57600080fd5b8035906020019184600183028401116401000000008311171561148c57600080fd5b91908080601f016020809104026020016040519081016040528093929190818152602001838380828437600081840152601f19601f820116905080830192505050505050509192919290803590602001906401000000008111156114ef57600080fd5b82018360208201111561150157600080fd5b8035906020019184600183028401116401000000008311171561152357600080fd5b91908080601f016020809104026020016040519081016040528093929190818152602001838380828437600081840152601f19601f8201169050808301925050505050505091929192908035906020019064010000000081111561158657600080fd5b82018360208201111561159857600080fd5b803590602001918460018302840111640100000000831117156115ba57600080fd5b91908080601f016020809104026020016040519081016040528093929190818152602001838380828437600081840152601f19601f82011690508083019250505050505050919291929050505061328a565b604051808215151515815260200191505060405180910390f35b34801561163257600080fd5b50611a17600480360361012081101561164a57600080fd5b8101908080359060200190929190803573ffffffffffffffffffffffffffffffffffffffff1690602001909291908035906020019064010000000081111561169157600080fd5b8201836020820111156116a357600080fd5b803590602001918460018302840111640100000000831117156116c557600080fd5b91908080601f016020809104026020016040519081016040528093929190818152602001838380828437600081840152601f19601f8201169050808301925050505050505091929192908035906020019064010000000081111561172857600080fd5b82018360208201111561173a57600080fd5b8035906020019184600183028401116401000000008311171561175c57600080fd5b91908080601f016020809104026020016040519081016040528093929190818152602001838380828437600081840152601f19601f820116905080830192505050505050509192919290803590602001906401000000008111156117bf57600080fd5b8201836020820111156117d157600080fd5b803590602001918460018302840111640100000000831117156117f357600080fd5b91908080601f016020809104026020016040519081016040528093929190818152602001838380828437600081840152601f19601f8201169050808301925050505050505091929192908035906020019064010000000081111561185657600080fd5b82018360208201111561186857600080fd5b8035906020019184600183028401116401000000008311171561188a57600080fd5b91908080601f016020809104026020016040519081016040528093929190818152602001838380828437600081840152601f19601f820116905080830192505050505050509192919290803560ff169060200190929190803590602001906401000000008111156118fa57600080fd5b82018360208201111561190c57600080fd5b8035906020019184600183028401116401000000008311171561192e57600080fd5b91908080601f016020809104026020016040519081016040528093929190818152602001838380828437600081840152601f19601f8201169050808301925050505050505091929192908035906020019064010000000081111561199157600080fd5b8201836020820111156119a357600080fd5b803590602001918460018302840111640100000000831117156119c557600080fd5b91908080601f016020809104026020016040519081016040528093929190818152602001838380828437600081840152601f19601f82011690508083019250505050505050919291929050505061345a565b005b348015611a2557600080fd5b50611a5260048036036020811015611a3c57600080fd5b81019080803590602001909291905050506135f5565b604051808973ffffffffffffffffffffffffffffffffffffffff1673ffffffffffffffffffffffffffffffffffffffff16815260200180602001806020018881526020018060200180602001806020018060200187810387528e818151815260200191508051906020019080838360005b83811015611ade578082015181840152602081019050611ac3565b50505050905090810190601f168015611b0b5780820380516001836020036101000a031916815260200191505b5087810386528d818151815260200191508051906020019080838360005b83811015611b44578082015181840152602081019050611b29565b50505050905090810190601f168015611b715780820380516001836020036101000a031916815260200191505b5087810385528b818151815260200191508051906020019080838360005b83811015611baa578082015181840152602081019050611b8f565b50505050905090810190601f168015611bd75780820380516001836020036101000a031916815260200191505b5087810384528a818151815260200191508051906020019080838360005b83811015611c10578082015181840152602081019050611bf5565b50505050905090810190601f168015611c3d5780820380516001836020036101000a031916815260200191505b50878103835289818151815260200191508051906020019080838360005b83811015611c76578082015181840152602081019050611c5b565b50505050905090810190601f168015611ca35780820380516001836020036101000a031916815260200191505b50878103825288818151815260200191508051906020019080838360005b83811015611cdc578082015181840152602081019050611cc1565b50505050905090810190601f168015611d095780820380516001836020036101000a031916815260200191505b509e50505050505050505050505050505060405180910390f35b6001602052806000526040600020600091509050806000018054600181600116156101000203166002900480601f016020809104026020016040519081016040528092919081815260200182805460018160011615610100020316600290048015611dcf5780601f10611da457610100808354040283529160200191611dcf565b820191906000526020600020905b815481529060010190602001808311611db257829003601f168201915b505050505090806001018054600181600116156101000203166002900480601f016020809104026020016040519081016040528092919081815260200182805460018160011615610100020316600290048015611e6d5780601f10611e4257610100808354040283529160200191611e6d565b820191906000526020600020905b815481529060010190602001808311611e5057829003601f168201915b505050505090806002018054600181600116156101000203166002900480601f016020809104026020016040519081016040528092919081815260200182805460018160011615610100020316600290048015611f0b5780601f10611ee057610100808354040283529160200191611f0b565b820191906000526020600020905b815481529060010190602001808311611eee57829003601f168201915b505050505090806003018054600181600116156101000203166002900480601f016020809104026020016040519081016040528092919081815260200182805460018160011615610100020316600290048015611fa95780601f10611f7e57610100808354040283529160200191611fa9565b820191906000526020600020905b815481529060010190602001808311611f8c57829003601f168201915b5050505050908060040160009054906101000a900460ff1690806005018054600181600116156101000203166002900480601f01602080910402602001604051908101604052809291908181526020018280546001816001161561010002031660029004801561205a5780601f1061202f5761010080835404028352916020019161205a565b820191906000526020600020905b81548152906001019060200180831161203d57829003601f168201915b5050505050908060060154905087565b60e06040519081016040528088815260200187815260200186815260200185815260200184600281111561209a57fe5b815260200183815260200182815250600160008a815260200190815260200160002060008201518160000190805190602001906120d89291906139ed565b5060208201518160010190805190602001906120f59291906139ed565b5060408201518160020190805190602001906121129291906139ed565b50606082015181600301908051906020019061212f9291906139ed565b5060808201518160040160006101000a81548160ff0219169083600281111561215457fe5b021790555060a08201518160050190805190602001906121759291906139ed565b5060c082015181600601559050505050505050505050565b60026020528060005260406000206000915090508060000160009054906101000a900473ffffffffffffffffffffffffffffffffffffffff1690806001018054600181600116156101000203166002900480601f01602080910402602001604051908101604052809291908181526020018280546001816001161561010002031660029004801561225f5780601f106122345761010080835404028352916020019161225f565b820191906000526020600020905b81548152906001019060200180831161224257829003601f168201915b505050505090806002018054600181600116156101000203166002900480601f0160208091040260200160405190810160405280929190818152602001828054600181600116156101000203166002900480156122fd5780601f106122d2576101008083540402835291602001916122fd565b820191906000526020600020905b8154815290600101906020018083116122e057829003601f168201915b505050505090806003018054600181600116156101000203166002900480601f01602080910402602001604051908101604052809291908181526020018280546001816001161561010002031660029004801561239b5780601f106123705761010080835404028352916020019161239b565b820191906000526020600020905b81548152906001019060200180831161237e57829003601f168201915b505050505090806004018054600181600116156101000203166002900480601f0160208091040260200160405190810160405280929190818152602001828054600181600116156101000203166002900480156124395780601f1061240e57610100808354040283529160200191612439565b820191906000526020600020905b81548152906001019060200180831161241c57829003601f168201915b5050505050908060050160009054906101000a900460ff1690806006018054600181600116156101000203166002900480601f0160208091040260200160405190810160405280929190818152602001828054600181600116156101000203166002900480156124ea5780601f106124bf576101008083540402835291602001916124ea565b820191906000526020600020905b8154815290600101906020018083116124cd57829003601f168201915b505050505090806007018054600181600116156101000203166002900480601f0160208091040260200160405190810160405280929190818152602001828054600181600116156101000203166002900480156125885780601f1061255d57610100808354040283529160200191612588565b820191906000526020600020905b81548152906001019060200180831161256b57829003601f168201915b5050505050905088565b60006060806060806000606080600260008a815260200190815260200160002060000160009054906101000a900473ffffffffffffffffffffffffffffffffffffffff169750600260008a81526020019081526020016000206001018054600181600116156101000203166002900480601f0160208091040260200160405190810160405280929190818152602001828054600181600116156101000203166002900480156126825780601f1061265757610100808354040283529160200191612682565b820191906000526020600020905b81548152906001019060200180831161266557829003601f168201915b50505050509650600260008a81526020019081526020016000206002018054600181600116156101000203166002900480601f0160208091040260200160405190810160405280929190818152602001828054600181600116156101000203166002900480156127335780601f1061270857610100808354040283529160200191612733565b820191906000526020600020905b81548152906001019060200180831161271657829003601f168201915b50505050509550600260008a81526020019081526020016000206003018054600181600116156101000203166002900480601f0160208091040260200160405190810160405280929190818152602001828054600181600116156101000203166002900480156127e45780601f106127b9576101008083540402835291602001916127e4565b820191906000526020600020905b8154815290600101906020018083116127c757829003601f168201915b50505050509450600260008a81526020019081526020016000206004018054600181600116156101000203166002900480601f0160208091040260200160405190810160405280929190818152602001828054600181600116156101000203166002900480156128955780601f1061286a57610100808354040283529160200191612895565b820191906000526020600020905b81548152906001019060200180831161287857829003601f168201915b50505050509350600260008a815260200190815260200160002060050160009054906101000a900460ff169250600260008a81526020019081526020016000206006018054600181600116156101000203166002900480601f01602080910402602001604051908101604052809291908181526020018280546001816001161561010002031660029004801561296c5780601f106129415761010080835404028352916020019161296c565b820191906000526020600020905b81548152906001019060200180831161294f57829003601f168201915b50505050509150600260008a81526020019081526020016000206007018054600181600116156101000203166002900480601f016020809104026020016040519081016040528092919081815260200182805460018160011615610100020316600290048015612a1d5780601f106129f257610100808354040283529160200191612a1d565b820191906000526020600020905b815481529060010190602001808311612a0057829003601f168201915b50505050509050919395975091939597565b606080606080600060606000600160008981526020019081526020016000206000018054600181600116156101000203166002900480601f016020809104026020016040519081016040528092919081815260200182805460018160011615610100020316600290048015612ae55780601f10612aba57610100808354040283529160200191612ae5565b820191906000526020600020905b815481529060010190602001808311612ac857829003601f168201915b50505050509650600160008981526020019081526020016000206001018054600181600116156101000203166002900480601f016020809104026020016040519081016040528092919081815260200182805460018160011615610100020316600290048015612b965780601f10612b6b57610100808354040283529160200191612b96565b820191906000526020600020905b815481529060010190602001808311612b7957829003601f168201915b50505050509550600160008981526020019081526020016000206002018054600181600116156101000203166002900480601f016020809104026020016040519081016040528092919081815260200182805460018160011615610100020316600290048015612c475780601f10612c1c57610100808354040283529160200191612c47565b820191906000526020600020905b815481529060010190602001808311612c2a57829003601f168201915b50505050509450600160008981526020019081526020016000206003018054600181600116156101000203166002900480601f016020809104026020016040519081016040528092919081815260200182805460018160011615610100020316600290048015612cf85780601f10612ccd57610100808354040283529160200191612cf8565b820191906000526020600020905b815481529060010190602001808311612cdb57829003601f168201915b505050505093506001600089815260200190815260200160002060040160009054906101000a900460ff169250600160008981526020019081526020016000206005018054600181600116156101000203166002900480601f016020809104026020016040519081016040528092919081815260200182805460018160011615610100020316600290048015612dcf5780601f10612da457610100808354040283529160200191612dcf565b820191906000526020600020905b815481529060010190602001808311612db257829003601f168201915b5050505050915060016000898152602001908152602001600020600601549050919395979092949650565b60006060806000606080606080600360008a815260200190815260200160002060000160009054906101000a900473ffffffffffffffffffffffffffffffffffffffff169750600360008a81526020019081526020016000206001018054600181600116156101000203166002900480601f016020809104026020016040519081016040528092919081815260200182805460018160011615610100020316600290048015612eea5780601f10612ebf57610100808354040283529160200191612eea565b820191906000526020600020905b815481529060010190602001808311612ecd57829003601f168201915b50505050509650600360008a81526020019081526020016000206002018054600181600116156101000203166002900480601f016020809104026020016040519081016040528092919081815260200182805460018160011615610100020316600290048015612f9b5780601f10612f7057610100808354040283529160200191612f9b565b820191906000526020600020905b815481529060010190602001808311612f7e57829003601f168201915b50505050509550600360008a8152602001908152602001600020600301549450600360008a81526020019081526020016000206004018054600181600116156101000203166002900480601f0160208091040260200160405190810160405280929190818152602001828054600181600116156101000203166002900480156130655780601f1061303a57610100808354040283529160200191613065565b820191906000526020600020905b81548152906001019060200180831161304857829003601f168201915b50505050509350600360008a81526020019081526020016000206005018054600181600116156101000203166002900480601f0160208091040260200160405190810160405280929190818152602001828054600181600116156101000203166002900480156131165780601f106130eb57610100808354040283529160200191613116565b820191906000526020600020905b8154815290600101906020018083116130f957829003601f168201915b50505050509250600360008a81526020019081526020016000206006018054600181600116156101000203166002900480601f0160208091040260200160405190810160405280929190818152602001828054600181600116156101000203166002900480156131c75780601f1061319c576101008083540402835291602001916131c7565b820191906000526020600020905b8154815290600101906020018083116131aa57829003601f168201915b50505050509150600360008a81526020019081526020016000206007018054600181600116156101000203166002900480601f0160208091040260200160405190810160405280929190818152602001828054600181600116156101000203166002900480156132785780601f1061324d57610100808354040283529160200191613278565b820191906000526020600020905b81548152906001019060200180831161325b57829003601f168201915b50505050509050919395975091939597565b60008060009054906101000a900473ffffffffffffffffffffffffffffffffffffffff1673ffffffffffffffffffffffffffffffffffffffff163373ffffffffffffffffffffffffffffffffffffffff161415156132e757600080fd5b610100604051908101604052808a73ffffffffffffffffffffffffffffffffffffffff16815260200189815260200188815260200187815260200186815260200185815260200184815260200183815250600360008c815260200190815260200160002060008201518160000160006101000a81548173ffffffffffffffffffffffffffffffffffffffff021916908373ffffffffffffffffffffffffffffffffffffffff16021790555060208201518160010190805190602001906133ae9291906139ed565b5060408201518160020190805190602001906133cb9291906139ed565b506060820151816003015560808201518160040190805190602001906133f29291906139ed565b5060a082015181600501908051906020019061340f9291906139ed565b5060c082015181600601908051906020019061342c9291906139ed565b5060e08201518160070190805190602001906134499291906139ed565b509050509998505050505050505050565b610100604051908101604052808973ffffffffffffffffffffffffffffffffffffffff1681526020018881526020018781526020018681526020018581526020018460028111156134a757fe5b815260200183815260200182815250600260008b815260200190815260200160002060008201518160000160006101000a81548173ffffffffffffffffffffffffffffffffffffffff021916908373ffffffffffffffffffffffffffffffffffffffff160217905550602082015181600101908051906020019061352c9291906139ed565b5060408201518160020190805190602001906135499291906139ed565b5060608201518160030190805190602001906135669291906139ed565b5060808201518160040190805190602001906135839291906139ed565b5060a08201518160050160006101000a81548160ff021916908360028111156135a857fe5b021790555060c08201518160060190805190602001906135c99291906139ed565b5060e08201518160070190805190602001906135e69291906139ed565b50905050505050505050505050565b60036020528060005260406000206000915090508060000160009054906101000a900473ffffffffffffffffffffffffffffffffffffffff1690806001018054600181600116156101000203166002900480601f0160208091040260200160405190810160405280929190818152602001828054600181600116156101000203166002900480156136c75780601f1061369c576101008083540402835291602001916136c7565b820191906000526020600020905b8154815290600101906020018083116136aa57829003601f168201915b505050505090806002018054600181600116156101000203166002900480601f0160208091040260200160405190810160405280929190818152602001828054600181600116156101000203166002900480156137655780601f1061373a57610100808354040283529160200191613765565b820191906000526020600020905b81548152906001019060200180831161374857829003601f168201915b505050505090806003015490806004018054600181600116156101000203166002900480601f0160208091040260200160405190810160405280929190818152602001828054600181600116156101000203166002900480156138095780601f106137de57610100808354040283529160200191613809565b820191906000526020600020905b8154815290600101906020018083116137ec57829003601f168201915b505050505090806005018054600181600116156101000203166002900480601f0160208091040260200160405190810160405280929190818152602001828054600181600116156101000203166002900480156138a75780601f1061387c576101008083540402835291602001916138a7565b820191906000526020600020905b81548152906001019060200180831161388a57829003601f168201915b505050505090806006018054600181600116156101000203166002900480601f0160208091040260200160405190810160405280929190818152602001828054600181600116156101000203166002900480156139455780601f1061391a57610100808354040283529160200191613945565b820191906000526020600020905b81548152906001019060200180831161392857829003601f168201915b505050505090806007018054600181600116156101000203166002900480601f0160208091040260200160405190810160405280929190818152602001828054600181600116156101000203166002900480156139e35780601f106139b8576101008083540402835291602001916139e3565b820191906000526020600020905b8154815290600101906020018083116139c657829003601f168201915b5050505050905088565b828054600181600116156101000203166002900490600052602060002090601f016020900481019282601f10613a2e57805160ff1916838001178555613a5c565b82800160010185558215613a5c579182015b82811115613a5b578251825591602001919060010190613a40565b5b509050613a699190613a6d565b5090565b613a8f91905b80821115613a8b576000816000905550600101613a73565b5090565b9056fea165627a7a72305820364c5d8156dc2744a10ecf639b3a3cd362cf031eb52645319bb588eb7d9fada00029",
  "source": "pragma solidity ^0.5.0;\n\ncontract ehr{\n\n    //declaring state variables\n    address admin;\n    enum gender {male, female, other}\n\n    // crearting constructor\n    constructor() public{\n        admin = msg.sender;\n    }\n    \n    // creating the structure patient\n    struct patient{\n        string name;\n        string DOB;\n        string addrs;\n        string email;\n        gender myGender;\n        string emergencycontact;\n        uint emergno;\n    }\n    \n    //creating a mapping named person\n    mapping(uint => patient) public person;\n    \n    \n    \n    //function for entering the mobileno of the person and the structure details of that person\n    function setPatient(uint _mobileno, string memory _name, string memory _DOB, string memory _addrs, string memory _email, gender _myGender, string memory _emergencycontact, uint _emergno) public {\n        person[_mobileno] = patient(_name, _DOB, _addrs, _email, _myGender, _emergencycontact, _emergno);\n    }\n    \n    // function for viewing the patient using the mobile number\n    function getPatient(uint _mobileno) public view returns (string memory _name, string memory _DOB, string memory _addrs, string memory _email, gender _myGender, string memory _emergencycontact, uint _emergno){\n\n        _name = person[_mobileno].name;\n        _DOB = person[_mobileno].DOB;\n        _addrs = person[_mobileno].addrs;\n        _email = person[_mobileno].email;\n        _myGender = person[_mobileno].myGender;\n        _emergencycontact = person[_mobileno].emergencycontact;\n        _emergno = person[_mobileno].emergno;\n    }\n\n    // creating the structure doctor\n    struct doctor{\n        address publickey;\n        string name;\n        string DOB;\n        string addrs;\n        string email;\n        gender myGender;\n        string hospitalname;\n        string qualifications;\n    }\n    \n    //creating a mapping named dctr for the doctor\n    mapping(uint => doctor) public dctr;\n\n//function for entering the id of the dctr and the structure details of that doctor\n    function setDoctor(uint _id,address _publickey, string memory _name, string memory _DOB, string memory _addrs, string memory _email, gender _myGender, string memory _hospitalname, string memory _qualifications) public {\n        dctr[_id] = doctor(_publickey, _name, _DOB, _addrs, _email, _myGender, _hospitalname, _qualifications);\n    }    \n\n// function for viewing the doctor using the id\n    function getDoctor(uint _id) public view returns (address _publickey, string memory _name, string memory _DOB, string memory _addrs, string memory _email, gender _myGender, string memory _hospitalname, string memory _qualifications){\n\n        _publickey = dctr[_id].publickey;\n        _name = dctr[_id].name;\n        _DOB = dctr[_id].DOB;\n        _addrs = dctr[_id].addrs;\n        _email = dctr[_id].email;\n        _myGender = dctr[_id].myGender;\n        _hospitalname = dctr[_id].hospitalname;\n        _qualifications = dctr[_id].qualifications;\n    }\n\n    //cerating structure for hospital\n    struct hospital{\n        address publickey;\n        string name;\n        string email;\n        uint phone;\n        string ownership;\n        string state;\n        string place;\n        string haddress;\n    }\n\n    //creating mapping for hospital\n    mapping(uint => hospital) public hospitaldetails;\n\n    //creating modifier for owner only condition\n    modifier only_owner(){\n        require(msg.sender == admin);\n        _;\n    }\n\n    //function to set the hospital with the with the mapping hospital id\n    function setHospital(uint _id, address _publickey, string memory _name, string memory _email, uint  _phone, string memory _ownership, string memory _state, string memory _place, string memory _haddress) public only_owner returns (bool){\n        hospitaldetails[_id] = hospital(_publickey, _name, _email, _phone, _ownership, _state, _place, _haddress);\n    } \n\n    //function to get the hospital details with the hospital id\n    function getHospital(uint _id) public view returns (address _publickey, string memory _name, string memory _email, uint  _phone, string memory _ownership, string memory _state, string memory _place, string memory _haddress){\n\n        _publickey= hospitaldetails[_id].publickey;\n        _name = hospitaldetails[_id].name;\n        _email = hospitaldetails[_id].email;\n        _phone = hospitaldetails[_id].phone;\n        _ownership = hospitaldetails[_id].ownership;\n        _state = hospitaldetails[_id].state;\n        _place = hospitaldetails[_id].place;\n        _haddress = hospitaldetails[_id].haddress;\n    }\n\n}",
  "sourcePath": "/home/akshaymuralidharan/Documents/Desktop/CED/Truffle/EHR/contracts/EHR.sol",
  "compiler": {
    "name": "solc",
    "version": "0.5.0+commit.1d4f565a.Emscripten.clang"
  },
  "schemaVersion": "3.0.9",
  "updatedAt": "2019-05-07T11:07:31.772Z",
  "devdoc": {
    "methods": {}
  },
  "userdoc": {
    "methods": {}
  }
}